:0C0000000C9445000C94F2000C94FC00E1
:040024000C946301D4
:04002C000C9492019D
:14005400415453300041542B434D47463D31000000000041F4
:14006800544100415444006F6666006F6E006B6579002B3852
:0D007C0036002041542B434D47523D3100CA
:14008A00CFE5D4E0CDBFDEBFCE51D0400AEA08830024E5E931
:14009E00F0E011E0EF31F10711F00192FBCF0083E4E5F0E0FB
:1400B200A0E6B0E010E000E00BBFE938F10721F0C89531963C
:1400C6000D92F9CF0E947F00FFCF222420921E0105E610E0DE
:1400DA000E947D0120901E012220E1F3222420921E0100E610
:1400EE0010E00E947D0120901E012220E1F3089522970E9411
:140102003801E5DF20909500222029F00E944602222420926A
:1401160095000EE110E00E940E0200931B01002329F520900F
:14012A001E01222059F3222420921E010E9499020030010788
:14013E0091F481E080931B0121E00EE110E00E94060286E0A8
:1401520090E09983888321E131E004E110E00E9415020E94BF
:140166006B0258010030010759F6CACF20901E01222031F26B
:14017A00222420921E010E94990258010030010711F586E020
:14018E0090E09983888327E031E004E110E00E942D0286E0A2
:1401A20090E09983888327E031E001E111E00E943303580196
:1401B6000030010751F486E090E09983888321E131E004E1C3
:1401CA0010E00E9415020E946B0258010030010709F094CF7C
:1401DE0093CF229608958A938FB78A9381E0809395008991B3
:1401F2008FBF899118950A921A922A923A924A925A926A9250
:140206007A928A929A920A931A932A933A938A939A93AA9335
:14021A00BA93EA93FA930FB60A920E940F0309900FBEF99174
:14022E00E991B991A991999189913991299119910991999089
:1402420089907990699059904990399029901990099018955A
:1402560022242BBA2ABA28BA27BA25BA24BA22BA82E081BB8B
:14026A000895A8950895F894F1DFFBDF0E945A010E944B01E8
:14027E000E946D010E9450018AE085BF80EC8BBF81E089BF5C
:140292007894089580E58DB922242EB8089587B3806B87BBD4
:1402A60081E58DB908950FB9779BFECF0895222423BE8DE81B
:1402BA0082BF83E78CBF83E083BF08958A938FB78A938DE803
:1402CE0082BFA89589918FBF89911895899A22242AB82BB841
:1402E20086E880BD8FE289B920BC88E98AB908955D9BFECFB8
:1402F6000CB908950E947B03A801AA24BB2404C0FA01319795
:14030A000081F2DFFA012190AF012220B9F70DE0EBDF0AE09E
:14031E00E9DF0C9480030A921A922A923A924A925A926A924C
:140332007A928A929A920A931A932A933A938A939A93AA9308
:14034600BA93EA93FA930FB60A924A934CB1809171008130DE
:14035A0059F44B3449F481E090E090931F0180931E012224FA
:14036E00209272004F3419F481E080937100809171008430AC
:1403820029F4473419F403E710E0B6DF80917100833029F401
:140396004E3419F484E08093710080917100823029F449340E
:1403AA0019F483E080937100423519F482E080937100209031
:1403BE001E0130901F01222051F4332041F487E990E0E091CC
:1403D2007200FF27E80FF91F4083499109900FBEF991E99169
:1403E600B991A9919991899139912991199109919990899031
:1403FA00799069905990499039902990199009901895E19940
:14040E00FECF1FBB0EBB2DBBE29AE19A0895E199FECF1FBBCD
:140422000EBBE09A0DB308950E94720369017801A884B984C3
:14043600442755270AC0FA01EC0DFD1D20818701040F151F83
:14044A00E0DF4F5F5F4F4A155B059CF30C9467030E94720314
:14045E0069017801A884B984442755270AC08701040F151FBE
:14047200D4DFFA01EC0DFD1D00834F5F5F4F4A155B059CF388
:140486000C94670308952297222420921E0184E690E09983F5
:14049A0088832227332707E910E00E9453030AE810E00E9444
:1404AE007D0120901E01222021F420901D012220C1F3209022
:1404C2001E01222019F00027112702C00FEF1FEF229608953A
:1404D6004A932297442723C083E090E09983888326E830E016
:1404EA0087E990E0042F1127080F191F0E9433030030010754
:1404FE0089F48BE090E0998388838AE990E0242F3327280FA4
:14051200391F0BEF10E00E9445030027112705C04395413636
:14052600D8F20FEF1FEF2296499108954A932297442731C0CA
:14053A0083E090E09983888322E830E087E990E0042F11274E
:14054E00080F191F0E94330300300107F9F486E090E099835B
:1405620088838AE990E0242F3327280F391F07E011E00E94E1
:14057600450386E090E09983888381EA90E0242F3327280F6D
:14058A00391F01E111E00E9445030027112705C043954136D5
:14059E0068F20FEF1FEF2296499108954A93229744272FC0C4
:1405B20082E090E0998388832FE730E087E990E0042F1127CB
:1405C600080F191F0E9433030030010731F481E08093960093
:1405DA00002711271CC083E090E0998388832BE730E087E946
:1405EE0090E0042F1127080F191F0E9433030030010731F49A
:140602002224209296000027112705C04395413678F20FEF7B
:140616001FEF22964991089566978BE090E0998388832BEF7A
:14062A0030E0002711270E942D0283E090E09983888327E774
:14063E0030E08E010E5F1F4F0E9445032BEF30E08E010B5F21
:140652001F4F0E945E038E010E5F1F4F0E947D016696089500
:14066600888199818030980751F0A02FB12FE22FF32F0D914D
:14067A001191011B19F40197D1F70027110B0895A02FB12FB2
:14068E00E22FF32F888199818030980703C001900D92019728
:1406A200E1F70895888199818030890729F0E02FF12F219370
:1406B6000197E9F70895A02FB12FE22FF32F01900D920020E9
:1406CA00E1F70895A990B990C990D990E990F990499159919D
:1406DE0008957A936A935A934A93FA92EA92DA92CA92BA927B
:1406F200AA9208955A934A93BA92AA920895A990B9904991D0
:040706005991089568
:00000001FF
